:1005650041542B4349504D55583D310D0A004F4BD1
:100575000041542B43495053544152543D342C228D
:10058500544350222C223131392E32332E3234311C
:100595002E3338222C313233340D0A0041542B438B
:1005A500495053454E443D342C3433000D0A004523
:1005B50052524F520041542B434950434C4F5345DF
:0505C5003D340D0A00A9
:0D06C300012A00012900052D525332330099
:1006AD00759850758920758780758DF3758BF3D28C
:0606BD00ACD2AFD28E2288
:07065A007BFF12061C7F0468
:10066100EFD394004015E4FEE4FDE4FC0CBC0AFC6D
:0B0671000DBD95F60EBEC0F01F80E529
:01067C00225B
:030023000202E9ED
:0D02E900C0E0C0D075D000C000C006C00746
:1002F600309872C298741F252AF8A699741F252A69
:10030600F8E6FEB47A02C2A3EEB45A02D2A3EEB461
:100316006A02C2A4EEB44A02D2A4052AE52AC3940C
:10032600024038741E252AF8E6640A702E741D25CC
:100336002AF8E6640D7024FFEFC3952A5015741F42
:100346002FF8E6FE743C2FF8A606741F2FF87600E9
:100356000F80E5752A00752901800AE52AC3940AEB
:050366004003752A00B0
:0B036B00D007D006D000D0D0D0E03288
:0F060D007A0079327B0012061C7BFF7A0579B1E7
:10061C00C2AC1204F76010F5993099FDC2997401BF
:0A062C0029F9E43AFA80EBD2AC227F
:10025800E4F5601206AD7F051206617A057965122C
:10026800065A8B647565057566737B007A00793C60
:10027800120402EA494B6052C2A01200267A05799C
:100288007612065A7BFF7A0579A112061C12061807
:100298001200267F011206617A00790B12061112EC
:1002A80001BF12060D12012612060DC2A17F05120A
:1002B80006618B647565057566B47B007A00793CC8
:1002C800120402EA494B60BCC2A27BFF7A0579BAE4
:1002D80012061C7F02120661D2A0D2A1D2A202028B
:0102E8005BBA
:0306D000014600E0
:10069600D3EF9400EE9400400DE4FD0DBD1BFCEF7E
:0606A6001F70ED1E80EA4A
:0106AC00222B
:0C06D40015611561156115611561156156
:0106E00022F7
:1005CA00E4FF754D02209007AE4D054DEE70F61210
:1005DA0006D41206D41206D4E4F5513090037551AC
:1005EA0001754D02309007AE4D054DEE70F6E54DA2
:1005FA006401600EE55525E0F555E55142550FBFFA
:02060A0008C026
:01060C0022CB
:10048400C2907FB47E00120696D2901206D4120651
:10049400D41206D41206D4D290209056754D022060
:1004A4009007AF4D054DEF70F6754D02309007AFD4
:1004B4004D054DEF70F61205CA8555521205CA85D1
:1004C40055531205CA8555471205CA855548120564
:1004D400CA855550D290E547254825522553F551F4
:1004E400B5500F85522B85532C85470885480985BF
:0304F400500A2289
:10002600120484852B2D852C2E85082F8509307585
:100036000B48750C55750D4D750E3AE52DC4540FCC
:1000460075F010A4FFE52D540F7C002FFBEC35F066
:10005600FA7D0AAF03FE120510EF2430F50F7C007F
:100066007D0AAF03AE02120510ED2430F5107511AE
:100076002EE52EC4540F75F010A4FFE52E540F7C08
:10008600002FFBEC35F0FA7D0AAF03FE120510EFE8
:100096002430F5127C007D0AAF03AE02120510ED86
:1000A6002430F51375142075155475164575174DBE
:1000B600751850E52FC4540F75F010A4FFE52F54A2
:1000C6000F7C002FFBEC35F0FA7D0AAF03FE12051C
:1000D60010EF2430F5197C007D0AAF03AE0212053D
:1000E60010ED2430F51A751B2EE530C4540F75F04B
:1000F60010A4FFE530540F7C002FFBEC35F0FA7DA1
:100106000AAF03FE120510EF2430F51C7C007D0AB1
:10011600AF03AE02120510ED2430F51DE4F51E22E4
:10000300C2B6E4FEEFC4131313540124FF92B4EFFA
:0B00130025E0FFC2B6D2B60EBE08E921
:01001E0022BF
:10063600E4FFFEC2B6FDFCEF25E0FFEE33FED2B6C8
:10064600C2B6A2B7E43342070DBD00010CED640C3F
:030656004C70E401
:01065900227E
:10067D00C2B6C2B51200037F06DFFED2B60000C2BD
:08068D00B60000120636D2B5DA
:010695002242
:100126007FE412067DAB07AA0675325375334F7509
:10013600344975354C75363A7C037DE8120510EF67
:100146002430F5377C037DE8AF03AE021205107E3E
:10015600007F64CFCDCFCECCCE120510EF2430F584
:10016600387C037DE8AF03AE021205107E007F6483
:10017600CFCDCFCECCCE1205107E007F0ACFCDCF0D
:10018600CECCCE120510EF2430F539AE02AF037C8B
:10019600037DE81205107E007F64CFCDCFCECCCE96
:1001A6001205107E007F0ACFCDCFCECCCE12051021
:0801B600ED2430F53AE4F53BBD
:0101BE00221E
:1001BF007FA412067DAB07AA0675324975334C75BD
:1001CF00344C75355575363A7C037DE8120510EFC2
:1001DF002430F5377C037DE8AF03AE021205107EA5
:1001EF00007F64CFCDCFCECCCE120510EF2430F5EB
:1001FF00387C037DE8AF03AE021205107E007F64EA
:10020F00CFCDCFCECCCE1205107E007F0ACFCDCF73
:10021F00CECCCE120510EF2430F539AE02AF037CF1
:10022F00037DE81205107E007F64CFCDCFCECCCEFC
:10023F001205107E007F0ACFCDCFCECCCE12051087
:08024F00ED2430F53AE4F53B23
:010257002284
:0300000002037682
:0C037600787FE4F6D8FD75816C0203BDB1
:1004F700BB010689828A83E0225002E722BBFE0203
:09050700E32289828A83E4932235
:10051000BC000BBE0029EF8DF084FFADF022E4CCCF
:10052000F875F008EF2FFFEE33FEEC33FCEE9DEC98
:10053000984005FCEE9DFE0FD5F0E9E4CEFD22EDDE
:10054000F8F5F0EE8420D21CFEADF075F008EF2F28
:10055000FFED33FD4007985006D5F0F222C398FD19
:050560000FD5F0EA22B6
:100402008B618A628963AB64AA65A9661204F7608C
:1004120063AB61AA62A9631204F7605F85646785B2
:1004220065688566698B6A8A6B896CAB67AA68A9FD
:10043200691204F7FF6023AB6AAA6BA96C1204F776
:100442006F7017042569F569E43568F5687401254C
:100452006CF56CE4356BF56B80D1AB67AA68A96962
:100462001204F77002800D74012563F563E43562AE
:10047200F562809DAB61AA62A963227B007A007952
:02048200002256
:10038200020258E493A3F8E493A34003F68001F237
:1003920008DFF48029E493A3F85407240CC8C3337C
:1003A200C4540F4420C8834004F456800146F6DF4B
:1003B200E4800B01020408102040809006C3E47E12
:1003C200019360BCA3FF543F30E509541FFEE49340
:1003D200A360010ECF54C025E060A840B8E493A307
:1003E200FAE493A3F8E493A3C8C582C8CAC583CA32
:1003F200F0A3C8C582C8CAC583CADFE9DEE780BEEA
:0106D3000026
:00000001FF
